:04000000FEEF3FF0E0
:1008000000930F810F8A0F0101940F820F8B0F014C
:1008100000940F820F8B0F0200940F820F8B0F0436
:100820000000076A0750080DF3CF01F0070E0126FC
:100830000150010F026E02C0F6FF0800F550E806F5
:10084000D8A425EF04F027EF04F04AEF04F0075096
:10085000080DF3CF01F0060E01260150010F026EC4
:1008600002C0F6FF0800F5CF03F00750080DF35063
:10087000010F046E04C0F6FF0900F5CF05F0090072
:10088000F5CF06F005C0D9FF06C0DAFF0350DF122E
:100890006CEF04F00750080DF3CF01F0060E0126AF
:1008A0000150010F026E02C0F6FF0800F550FF0A6A
:1008B000036E0750080DF350010F046E04C0F6FFDD
:1008C0000900F5CF05F00900F5CF06F005C0D9FF06
:1008D00006C0DAFF0350DF16072A030E076473EF22
:1008E00004F075EF04F012EF04F01200096E010439
:1008F000D8A47DEF04F07FEF04F0A6EF04F00950D8
:10090000080DF3CF02F0060E02260250010F036E0F
:1009100003C0F6FF0800F5CF04F00950080DF3CF2F
:1009200005F0040E05260550010F066E06C0F6FF01
:100930000900F5CF07F00900F5CF08F007C0D9FF8F
:1009400008C0DAFF0450DF12CCEF04F00950080DA4
:10095000F3CF02F0060E02260250010F036E03C011
:10096000F6FF0800F550FF0A046E0950080DF3CF9A
:1009700005F0040E05260550010F066E06C0F6FFB1
:100980000900F5CF07F00900F5CF08F007C0D9FF3F
:1009900008C0DAFF0450DF161200086E0850080D78
:1009A000F3CF01F0060E01260150010F026E02C0C6
:1009B000F6FF0800F5CF03F00850080DF3CF04F060
:1009C000020E04260450010F056E05C0F6FF090053
:1009D000F5CF06F00900F5CF07F006C0D9FF07C034
:1009E000DAFFDF5003140009D8B4F9EF04F0FBEF8D
:1009F00004F0FEEF04F0010EFFEF04F0000E120011
:100A000011EC04F0000ECDEC04F00009D8A40BEFBB
:100A100005F00DEF05F014EF05F0010E016E010E6B
:100A200076EC04F002EF05F0000E016E010E76EC9C
:100A300004F002EF05F0FEEF3FF0000EF86E080E36
:080A4000F76E000100EF05F064
:047FFC001DEF05F080
:020000040030CA
:08000000000C1E1EFF8181FFB0
:00000001FF
